{
  "_format": "hh-sol-artifact-1",
  "contractName": "ItemManager",
  "sourceName": "contracts/ItemManager.sol",
  "abi": [
    {
      "anonymous": false,
      "inputs": [
        {
          "indexed": true,
          "internalType": "uint256",
          "name": "id",
          "type": "uint256"
        },
        {
          "indexed": false,
          "internalType": "string",
          "name": "nome",
          "type": "string"
        },
        {
          "indexed": false,
          "internalType": "address",
          "name": "owner",
          "type": "address"
        }
      ],
      "name": "ItemCreated",
      "type": "event"
    },
    {
      "anonymous": false,
      "inputs": [
        {
          "indexed": true,
          "internalType": "uint256",
          "name": "id",
          "type": "uint256"
        }
      ],
      "name": "ItemDeleted",
      "type": "event"
    },
    {
      "inputs": [
        {
          "internalType": "string",
          "name": "_nome",
          "type": "string"
        },
        {
          "internalType": "string",
          "name": "_descricao",
          "type": "string"
        }
      ],
      "name": "criarItem",
      "outputs": [],
      "stateMutability": "nonpayable",
      "type": "function"
    },
    {
      "inputs": [
        {
          "internalType": "uint256",
          "name": "_id",
          "type": "uint256"
        }
      ],
      "name": "deletarItem",
      "outputs": [],
      "stateMutability": "nonpayable",
      "type": "function"
    },
    {
      "inputs": [
        {
          "internalType": "uint256",
          "name": "",
          "type": "uint256"
        }
      ],
      "name": "items",
      "outputs": [
        {
          "internalType": "uint256",
          "name": "id",
          "type": "uint256"
        },
        {
          "internalType": "string",
          "name": "nome",
          "type": "string"
        },
        {
          "internalType": "string",
          "name": "descricao",
          "type": "string"
        },
        {
          "internalType": "address",
          "name": "owner",
          "type": "address"
        }
      ],
      "stateMutability": "view",
      "type": "function"
    },
    {
      "inputs": [],
      "name": "nextItemId",
      "outputs": [
        {
          "internalType": "uint256",
          "name": "",
          "type": "uint256"
        }
      ],
      "stateMutability": "view",
      "type": "function"
    },
    {
      "inputs": [
        {
          "internalType": "uint256",
          "name": "_id",
          "type": "uint256"
        }
      ],
      "name": "obterItem",
      "outputs": [
        {
          "components": [
            {
              "internalType": "uint256",
              "name": "id",
              "type": "uint256"
            },
            {
              "internalType": "string",
              "name": "nome",
              "type": "string"
            },
            {
              "internalType": "string",
              "name": "descricao",
              "type": "string"
            },
            {
              "internalType": "address",
              "name": "owner",
              "type": "address"
            }
          ],
          "internalType": "struct ItemManager.Item",
          "name": "",
          "type": "tuple"
        }
      ],
      "stateMutability": "view",
      "type": "function"
    }
  ],
  "bytecode": "0x60806040526001805534801561001457600080fd5b50610fae806100246000396000f3fe608060405234801561001057600080fd5b50600436106100575760003560e01c80636347eed71461005c5780636a8689741461008c578063bfb231d2146100aa578063bfd2a3ad146100dd578063e1a4586f146100f9575b600080fd5b6100766004803603810190610071919061076b565b610115565b60405161008391906108e2565b60405180910390f35b6100946102c5565b6040516100a19190610913565b60405180910390f35b6100c460048036038101906100bf919061076b565b6102cb565b6040516100d49493929190610987565b60405180910390f35b6100f760048036038101906100f2919061076b565b61042b565b005b610113600480360381019061010e9190610b0f565b610562565b005b61011d610686565b6000808381526020019081526020016000206040518060800160405290816000820154815260200160018201805461015490610bb6565b80601f016020809104026020016040519081016040528092919081815260200182805461018090610bb6565b80156101cd5780601f106101a2576101008083540402835291602001916101cd565b820191906000526020600020905b8154815290600101906020018083116101b057829003601f168201915b505050505081526020016002820180546101e690610bb6565b80601f016020809104026020016040519081016040528092919081815260200182805461021290610bb6565b801561025f5780601f106102345761010080835404028352916020019161025f565b820191906000526020600020905b81548152906001019060200180831161024257829003601f168201915b505050505081526020016003820160009054906101000a900473ffffffffffffffffffffffffffffffffffffffff1673ffffffffffffffffffffffffffffffffffffffff1673ffffffffffffffffffffffffffffffffffffffff16815250509050919050565b60015481565b60006020528060005260406000206000915090508060000154908060010180546102f490610bb6565b80601f016020809104026020016040519081016040528092919081815260200182805461032090610bb6565b801561036d5780601f106103425761010080835404028352916020019161036d565b820191906000526020600020905b81548152906001019060200180831161035057829003601f168201915b50505050509080600201805461038290610bb6565b80601f01602080910402602001604051908101604052809291908181526020018280546103ae90610bb6565b80156103fb5780601f106103d0576101008083540402835291602001916103fb565b820191906000526020600020905b8154815290600101906020018083116103de57829003601f168201915b5050505050908060030160009054906101000a900473ffffffffffffffffffffffffffffffffffffffff16905084565b3373ffffffffffffffffffffffffffffffffffffffff1660008083815260200190815260200160002060030160009054906101000a900473ffffffffffffffffffffffffffffffffffffffff1673ffffffffffffffffffffffffffffffffffffffff16146104ce576040517f08c379a00000000000000000000000000000000000000000000000000000000081526004016104c590610c33565b60405180910390fd5b6000808281526020019081526020016000206000808201600090556001820160006104f991906106c4565b60028201600061050991906106c4565b6003820160006101000a81549073ffffffffffffffffffffffffffffffffffffffff02191690555050807f3d0be3a3bbdb36b253d40a546d15d6b7f402fc43e4cd4a067af359b0763b6f3c60405160405180910390a250565b604051806080016040528060015481526020018381526020018281526020013373ffffffffffffffffffffffffffffffffffffffff1681525060008060015481526020019081526020016000206000820151816000015560208201518160010190816105ce9190610dff565b5060408201518160020190816105e49190610dff565b5060608201518160030160006101000a81548173ffffffffffffffffffffffffffffffffffffffff021916908373ffffffffffffffffffffffffffffffffffffffff1602179055509050506001547efd4d38e2e6a0a8a90d326b227b226214bb94c92231097ba085de4450b5e0f68333604051610662929190610ed1565b60405180910390a26001600081548092919061067d90610f30565b91905055505050565b6040518060800160405280600081526020016060815260200160608152602001600073ffffffffffffffffffffffffffffffffffffffff1681525090565b5080546106d090610bb6565b6000825580601f106106e25750610701565b601f0160209004906000526020600020908101906107009190610704565b5b50565b5b8082111561071d576000816000905550600101610705565b5090565b6000604051905090565b600080fd5b600080fd5b6000819050919050565b61074881610735565b811461075357600080fd5b50565b6000813590506107658161073f565b92915050565b6000602082840312156107815761078061072b565b5b600061078f84828501610756565b91505092915050565b6107a181610735565b82525050565b600081519050919050565b600082825260208201905092915050565b60005b838110156107e15780820151818401526020810190506107c6565b60008484015250505050565b6000601f19601f8301169050919050565b6000610809826107a7565b61081381856107b2565b93506108238185602086016107c3565b61082c816107ed565b840191505092915050565b600073ffffffffffffffffffffffffffffffffffffffff82169050919050565b600061086282610837565b9050919050565b61087281610857565b82525050565b60006080830160008301516108906000860182610798565b50602083015184820360208601526108a882826107fe565b915050604083015184820360408601526108c282826107fe565b91505060608301516108d76060860182610869565b508091505092915050565b600060208201905081810360008301526108fc8184610878565b905092915050565b61090d81610735565b82525050565b60006020820190506109286000830184610904565b92915050565b600082825260208201905092915050565b600061094a826107a7565b610954818561092e565b93506109648185602086016107c3565b61096d816107ed565b840191505092915050565b61098181610857565b82525050565b600060808201905061099c6000830187610904565b81810360208301526109ae818661093f565b905081810360408301526109c2818561093f565b90506109d16060830184610978565b95945050505050565b600080fd5b600080fd5b7f4e487b7100000000000000000000000000000000000000000000000000000000600052604160045260246000fd5b610a1c826107ed565b810181811067ffffffffffffffff82111715610a3b57610a3a6109e4565b5b80604052505050565b6000610a4e610721565b9050610a5a8282610a13565b919050565b600067ffffffffffffffff821115610a7a57610a796109e4565b5b610a83826107ed565b9050602081019050919050565b82818337600083830152505050565b6000610ab2610aad84610a5f565b610a44565b905082815260208101848484011115610ace57610acd6109df565b5b610ad9848285610a90565b509392505050565b600082601f830112610af657610af56109da565b5b8135610b06848260208601610a9f565b91505092915050565b60008060408385031215610b2657610b2561072b565b5b600083013567ffffffffffffffff811115610b4457610b43610730565b5b610b5085828601610ae1565b925050602083013567ffffffffffffffff811115610b7157610b70610730565b5b610b7d85828601610ae1565b9150509250929050565b7f4e487b7100000000000000000000000000000000000000000000000000000000600052602260045260246000fd5b60006002820490506001821680610bce57607f821691505b602082108103610be157610be0610b87565b5b50919050565b7f4e616f206568206f20646f6e6f00000000000000000000000000000000000000600082015250565b6000610c1d600d8361092e565b9150610c2882610be7565b602082019050919050565b60006020820190508181036000830152610c4c81610c10565b9050919050565b60008190508160005260206000209050919050565b60006020601f8301049050919050565b600082821b905092915050565b600060088302610cb57fffffffffffffffffffffffffffffffffffffffffffffffffffffffffffffffff82610c78565b610cbf8683610c78565b95508019841693508086168417925050509392505050565b6000819050919050565b6000610cfc610cf7610cf284610735565b610cd7565b610735565b9050919050565b6000819050919050565b610d1683610ce1565b610d2a610d2282610d03565b848454610c85565b825550505050565b600090565b610d3f610d32565b610d4a818484610d0d565b505050565b5b81811015610d6e57610d63600082610d37565b600181019050610d50565b5050565b601f821115610db357610d8481610c53565b610d8d84610c68565b81016020851015610d9c578190505b610db0610da885610c68565b830182610d4f565b50505b505050565b600082821c905092915050565b6000610dd660001984600802610db8565b1980831691505092915050565b6000610def8383610dc5565b9150826002028217905092915050565b610e08826107a7565b67ffffffffffffffff811115610e2157610e206109e4565b5b610e2b8254610bb6565b610e36828285610d72565b600060209050601f831160018114610e695760008415610e57578287015190505b610e618582610de3565b865550610ec9565b601f198416610e7786610c53565b60005b82811015610e9f57848901518255600182019150602085019450602081019050610e7a565b86831015610ebc5784890151610eb8601f891682610dc5565b8355505b6001600288020188555050505b505050505050565b60006040820190508181036000830152610eeb818561093f565b9050610efa6020830184610978565b9392505050565b7f4e487b7100000000000000000000000000000000000000000000000000000000600052601160045260246000fd5b6000610f3b82610735565b91507fffffffffffffffffffffffffffffffffffffffffffffffffffffffffffffffff8203610f6d57610f6c610f01565b5b60018201905091905056fea2646970667358221220e66ec2e0897db34f0989cf214f68e1342e7feac141060618e1086367a1b0eb3a64736f6c63430008130033",
  "linkReferences": {},
  "deployedLinkReferences": {}
}